:100000000C9461000C9476000C9476000C947600AD
:100010000C9476000C9476000C9476000C94760088
:100020000C9476000C9476000C9476000C94760078
:100030000C9476000C9476000C9476000C94760068
:100040000C9476000C9476000C9476000C94760058
:100050000C9476000C9476000C9476000C94760048
:100060000C9476000C94760008000000BE9224499F
:10007000123EABAAAA2ABECDCCCC4C3E00000080DA
:10008000BEABAAAAAA3E00000000BF000000803F4D
:100090000000000000084178D3BB4387D1133D190D
:1000A0000E3CC3BD4282AD2B3E68EC8276BED98F3A
:1000B000E1A93E4C80EFFFBE01C4FF7F3F0000007E
:1000C000000011241FBECFEFD8E0DEBFCDBF11E08E
:1000D000A0E0B1E0ECE5F0E102C005900D92A0389F
:1000E000B107D9F70E947B010C942C080C940000F6
:1000F0008F709927209164002E7F209364008830B0
:1001000091054CF421E030E0082E01C0220F0A9442
:10011000EAF720937E0027E820937A0010927B0074
:100120008830910511F488EC01C0806480937C00D4
:10013000089580917A00806480937A0080917A009B
:1001400086FDFCCF809178009091790008958F9280
:100150009F92AF92BF92CF92DF92EF92FF920F9356
:100160001F93CF93DF93162F072FBC01882777FDAE
:100170008095982F0E94E60323E63EEE48E150E486
:100180000E94E70221E338E04DE453E40E944B0370
:100190009B01AC0166EF78E280EA90E40E944B0399
:1001A00020E030E040E85FE30E94E6029B01AC0102
:1001B00060E070E080E89FE30E944B0320E030EEB7
:1001C00042E955E40E94B70420E030EE42E955E4EC
:1001D0000E944B030E9477046B017C012DE435EBF8
:1001E00046E859E30E94B7042DE03FEC4BE55BE3A2
:1001F0000E94E7024B015C012EEA3FE340E356E335
:10020000C701B6010E94B704A70196010E94B70476
:100210009B01AC01C501B4010E94E7024B015C01E6
:100220002DEC33E041E953E3C701B6010E94B70466
:10023000A70196010E94B704A70196010E94B70486
:100240009B01AC01C501B4010E94E7029B01AC0116
:1002500060E070E080E89FE30E944B036B017C014B
:100260000E94B303EB01C151D140BE01882777FD45
:100270008095982F0E94E6039B01AC01C701B6014F
:100280000E94E60220E030E848E853E40E94E602DB
:1002900020E030E048EC52E40E94B7040E94B3032F
:1002A0009B0177FF04C022273327261B370B3F9380
:1002B0002F93DF93CF9384E691E09F938F931F92C8
:1002C00084E68F930F931F930E944D058DB79EB7C1
:1002D0000A960FB6F8949EBF0FBE8DBFDF91CF91E7
:1002E0001F910F91FF90EF90DF90CF90BF90AF9054
:1002F0009F908F900895CF93DF93CDB7DEB7C15F06
:10030000D1090FB6F894DEBF0FBECDBF80E090E0FC
:100310000E9478000E9428028E010B591F4F87E02F
:10032000E0E0F1E0D80101900D928A95E1F7F80143
:1003300037968DE5DF011D928A95E9F76E01BAEED9
:10034000CB0ED11C88E0E8E7F1E0D60101900D92D8
:100350008A95E1F7CE0101965C018EE6882E81E058
:10036000982E91E2592E7E0199ECE90EF11C0E9423
:100370009900782E692EB5010E94A7000E941002F4
:10038000BF92AF92DF92CF926F927F921F930F93A3
:100390009F928F921F925F92FF92EF920E944D0563
:1003A00060E070E0C7010E945802AFEFB3ED20E3B8
:1003B000A150B0402040E1F700C000000FB6F89413
:1003C000DEBF0FBECDBFD3CF45988BB9439A84E033
:1003D00090E00197F1F7439880E991E00197F1F7F8
:1003E000089545984498982F907F9BB9439AE4E0EC
:1003F000F0E03197F1F74398E0E9F1E03197F1F758
:1004000020E1829FC00111248BB9439A84E090E0DF
:100410000197F1F7439880E991E00197F1F708958A
:100420001BB8439A84E090E00197F1F7439880E28B
:100430009CE10197F1F780E18BB9439A84E090E069
:100440000197F1F7439880E29CE10197F1F7089555
:1004500088E387B980EF8AB918B82FE782E392E082
:10046000215080409040E1F700C0000080E30E94EE
:10047000E40180E190E40197F1F780E30E94E40158
:1004800080E991E00197F1F780E30E94E40180E2C6
:100490000E94E40182E00E94F10188E20E94F101E1
:1004A0008CE00E94F1010E94100286E00C94F101A0
:1004B000AF92BF92CF92DF92EF92FF920F931F9372
:1004C000CF93DF93EC017B01FC0120E030E06FEF84
:1004D0008191882339F02032310521F0E114F104B3
:1004E00041F460E1B12C00E911E084E0C82ED12C88
:1004F0004CC02F30310519F48032B9F4F2CF2031DD
:10050000310599F4803289F081E0E816F10469F44C
:1005100040E150E0DE01A40FB51F8C91803211F450
:10052000642F03C041505109A8F72F5F3F4FD0CF30
:10053000AA24A394AB0C8A3079F580EC0E94F101D7
:10054000C8010197F1F7BA2C6FEFFE01EB0DF11D19
:100550002081459A4498822F807F8BB9439AC601A7
:100560000197F1F74398C8010197F1F730E1239F14
:10057000C00111248BB9439AC6010197F1F7439842
:100580004598C8010197F1F7B394FE01EB0DF11DF9
:1005900080818111CDCF0FC0B612D7CF80EC0E94E1
:1005A000F101C8010197F1F76B2D31E0E316F10479
:1005B00061F6BA2CCACFDF91CF911F910F91FF90B6
:1005C000EF90DF90CF90BF90AF9008955058BB2729
:1005D000AA270ED04DC13ED130F043D120F031F4E6
:1005E0009F3F11F41EF433C10EF4E095E7FB29C1DF
:1005F000E92F4FD180F3BA17620773078407950775
:1006000018F071F49EF567C10EF4E0950B2EBA2F29
:10061000A02D0B01B90190010C01CA01A001112408
:10062000FF27591B99F0593F50F4503E68F11A16B4
:10063000F040A22F232F342F4427585FF3CF469545
:1006400037952795A795F0405395C9F77EF41F1667
:10065000BA0B620B730B840BBAF09150A1F0FF0F31
:10066000BB1F661F771F881FC2F70EC0BA0F621F1D
:10067000731F841F48F4879577956795B795F7950D
:100680009E3F08F0B3CF9395880F08F09927EE0F9F
:100690009795879508950CD0EBC0E3D040F0DAD061
:1006A00030F021F45F3F19F0CCC0511115C1CFC01B
:1006B000F0D098F39923C9F35523B1F3951B550B4B
:1006C000BB27AA2762177307840738F09F5F5F4F25
:1006D000220F331F441FAA1FA9F333D00E2E3AF066
:1006E000E0E830D091505040E695001CCAF729D080
:1006F000FE2F27D0660F771F881FBB1F26173707CF
:100700004807AB07B0E809F0BB0B802DBF01FF27FE
:1007100093585F4F2AF09E3F510568F092C0DCC0AD
:100720005F3FECF3983EDCF3869577956795B79538
:10073000F7959F5FC9F7880F911D9695879597F953
:100740000895E1E0660F771F881FBB1F62177307CC
:100750008407BA0720F0621B730B840BBA0BEE1FE1
:1007600088F7E095089504D06894B111B5C0089554
:1007700098D088F09F5790F0B92F9927B751A0F0E3
:10078000D1F0660F771F881F991F1AF0BA95C9F725
:1007900012C0B13081F09FD0B1E008959CC0672FA6
:1007A000782F8827B85F39F0B93FCCF386957795D5
:1007B0006795B395D9F73EF49095809570956195BE
:1007C0007F4F8F4F9F4F0895E89409C097FB3EF4E9
:1007D00090958095709561957F4F8F4F9F4F99238E
:1007E000A9F0F92F96E9BB279395F695879577950C
:1007F0006795B795F111F8CFFAF4BB0F11F460FFCC
:100800001BC06F5F7F4F8F4F9F4F16C0882311F023
:1008100096E911C0772321F09EE8872F762F05C037
:10082000662371F096E8862F70E060E02AF09A95D2
:10083000660F771F881FDAF7880F9695879597F9C7
:10084000089597F99F6780E870E060E008959FEF52
:1008500080EC089500240A94161617061806090657
:10086000089500240A941216130614060506089526
:10087000092E0394000C11F4882352F0BB0F40F4AE
:10088000BF2B11F460FF04C06F5F7F4F8F4F9F4FEE
:10089000089557FD9058440F551F59F05F3F71F070
:1008A0004795880F97FB991F61F09F3F79F08795D7
:1008B0000895121613061406551FF2CF4695F1DF60
:1008C00008C0161617061806991FF1CF86957105F0
:1008D000610508940895E894BB2766277727CB0124
:1008E00097F908950EF0A6C0B2CF6894AACFD9DFC9
:1008F000C8F39923D1F3C6F3DF93CF931F930F93DC
:10090000FF92C92FDD2788232AF02197660F771FD2
:10091000881FDAF720E030E040E85FEB9FE388399A
:1009200020F0803E30F021968F7751DEE8E6F0E04F
:1009300003C04DDEE5E9F0E08BD08B01BE01EC0198
:10094000FB2E6F5771097595771F880B990B3EDF4A
:1009500028E132E741E35FE316D0AF2D9801AE0105
:10096000FF900F911F91CF91DF9142DE81CF0BD08D
:100970007FCF70DF28F075DF18F0952309F061CF85
:1009800066CF1124A9CF85DFA0F3959FD1F3950FF2
:1009900050E0551F629FF001729FBB27F00DB11D03
:1009A000639FAA27F00DB11DAA1F649F6627B00D93
:1009B000A11D661F829F2227B00DA11D621F739F7C
:1009C000B00DA11D621F839FA00D611D221F749F8A
:1009D0003327A00D611D231F849F600D211D822FD1
:1009E000762F6A2F11249F5750408AF0E1F0882318
:1009F0004AF0EE0FFF1FBB1F661F771F881F915025
:100A00005040A9F79E3F510570F01BCF65CF5F3F67
:100A1000ECF3983EDCF3869577956795B795F79557
:100A2000E7959F5FC1F7FE2B880F911D96958795DF
:100A300097F908959F3F31F0915020F4879577956D
:100A40006795B795880F911D9695879597F90895A5
:100A5000DF93CF931F930F93FF92EF92DF927B016F
:100A60008C01689405C0DA2EEF018DDFFE01E89459
:100A7000A5912591359145915591AEF3EF01B8DDE2
:100A8000FE019701A801DA9479F7DF90EF90FF90CB
:100A90000F911F91CF91DF910895AEE0B0E0E3E5B3
:100AA000F5E00C9403080D891E898F89988D26E046
:100AB0002C831A83098397FF02C080E090E8019796
:100AC0009E838D83AE01455E5F4F698D7A8DCE0129
:100AD00001960E947D054D815E8157FD0AC02F81E0
:100AE0003885421753070CF49A01F801E20FF31FFF
:100AF00010822E96E4E00C941F08ACE0B0E0E3E82E
:100B0000F5E00C94F5077C016B018A01FC0117826A
:100B10001682838181FFBDC1CE0101964C01F70190
:100B20009381F60193FD859193FF81916F01882355
:100B300009F4ABC1853239F493FD859193FF81911E
:100B40006F01853229F4B70190E00E946507E7CF75
:100B5000512C312C20E02032A0F48B3269F030F49B
:100B6000803259F0833269F420612CC08D3239F023
:100B7000803339F4216026C02260246023C02860BD
:100B800021C027FD27C030ED380F3A3078F426FF1A
:100B900006C0FAE05F9E300D1124532E13C08AE088
:100BA000389E300D1124332E20620CC08E3221F479
:100BB00026FD6BC1206406C08C3611F4206802C08B
:100BC000883641F4F60193FD859193FF81916F0181
:100BD0008111C1CF982F9F7D9554933028F40C5FDD
:100BE0001F4FFFE3F9830DC0833631F0833771F077
:100BF000833509F05BC022C0F801808189830E5FD4
:100C00001F4F44244394512C540115C03801F2E085
:100C10006F0E711CF801A080B18026FF03C0652D06
:100C200070E002C06FEF7FEFC5012C870E945A076A
:100C30002C0183012C852F77222E17C03801F2E07A
:100C40006F0E711CF801A080B18026FF03C0652DD6
:100C500070E002C06FEF7FEFC5012C870E944F0745
:100C60002C012C852068222E830123FC1BC0832DA0
:100C700090E048165906B0F4B70180E290E00E9477
:100C800065073A94F4CFF50127FC859127FE819101
:100C90005F01B70190E00E94650731103A94F1E0DE
:100CA0004F1A51084114510471F7E5C0843611F010
:100CB000893639F5F80127FF07C06081718182818B
:100CC00093810C5F1F4F08C060817181882777FD79
:100CD0008095982F0E5F1F4F2F76B22E97FF09C079
:100CE00090958095709561957F4F8F4F9F4F2068AD
:100CF000B22E2AE030E0A4010E949707A82EA8187F
:100D000044C0853729F42F7EB22E2AE030E025C07A
:100D1000F22FF97FBF2E8F36C1F018F4883579F0A5
:100D2000B4C0803719F0883721F0AFC02F2F206171
:100D3000B22EB4FE0DC08B2D8460B82E09C024FFE6
:100D40000AC09F2F9660B92E06C028E030E005C08B
:100D500020E130E002C020E132E0F801B7FE07C038
:100D600060817181828193810C5F1F4F06C0608119
:100D7000718180E090E00E5F1F4FA4010E949707F1
:100D8000A82EA818FB2DFF77BF2EB6FE0BC02B2D6B
:100D90002E7FA51450F4B4FE0AC0B2FC08C02B2D5F
:100DA0002E7E05C07A2C2B2D03C07A2C01C0752C09
:100DB00024FF0DC0FE01EA0DF11D8081803311F486
:100DC000297E09C022FF06C07394739404C0822F49
:100DD000867809F0739423FD13C020FF06C05A2CB7
:100DE000731418F4530C5718732C731468F4B70168
:100DF00080E290E02C870E94650773942C85F5CFE4
:100E0000731410F4371801C0312C24FF12C0B7013D
:100E100080E390E02C870E9465072C8522FF17C095
:100E200021FF03C088E590E002C088E790E0B701A9
:100E30000CC0822F867859F021FD02C080E201C0EB
:100E40008BE227FD8DE2B70190E00E946507A514B3
:100E500038F4B70180E390E00E9465075A94F7CF19
:100E6000AA94F401EA0DF11D8081B70190E00E947F
:100E70006507A110F5CF332009F451CEB70180E208
:100E800090E00E9465073A94F6CFF701868197813A
:100E900002C08FEF9FEF2C96E2E10C941108FC0149
:100EA0000590615070400110D8F7809590958E0F95
:100EB0009F1F0895FC016150704001900110D8F708
:100EC000809590958E0F9F1F08950F931F93CF933A
:100ED000DF93182F092FEB018B8181FD03C08FEF6A
:100EE0009FEF20C082FF10C04E815F812C813D8129
:100EF000421753077CF4E881F9819F012F5F3F4F30
:100F000039832883108306C0E885F985812F0995E8
:100F1000892B29F72E813F812F5F3F4F3F832E83FF
:100F2000812F902FDF91CF911F910F910895FA019A
:100F3000AA27283051F1203181F1E8946F936E7F18
:100F40006E5F7F4F8F4F9F4FAF4FB1E03ED0B4E009
:100F50003CD0670F781F891F9A1FA11D680F791F4A
:100F60008A1F911DA11D6A0F711D811D911DA11D5B
:100F700020D009F468943F912AE0269F112430196B
:100F8000305D3193DEF6CF010895462F4770405D06
:100F90004193B3E00FD0C9F7F6CF462F4F70405DB5
:100FA0004A3318F0495D31FD4052419302D0A9F710
:100FB000EACFB4E0A6959795879577956795BA950A
:100FC000C9F700976105710508959B01AC010A2ED0
:100FD00006945795479537952795BA95C9F7620FA7
:100FE000731F841F951FA01D08952F923F924F924B
:100FF0005F926F927F928F929F92AF92BF92CF92A9
:10100000DF92EF92FF920F931F93CF93DF93CDB7B1
:10101000DEB7CA1BDB0B0FB6F894DEBF0FBECDBF29
:1010200009942A88398848885F846E847D848C84FA
:101030009B84AA84B984C884DF80EE80FD800C8103
:101040001B81AA81B981CE0FD11D0FB6F894DEBFE6
:0C1050000FBECDBFED010895F894FFCF56
:10105C00414443203D20000000000000000000003F
:10106C000000000000000000000000000000000074
:10107C000000000000000000000000000000000064
:10108C000000000000000000000000000000000054
:10109C000000000000000000000000000000000044
:1010AC000000000000000000000000000000000034
:1010BC0000000000253032692E253032690025737E
:1010CC0025690A257325730054656D70203D200039
:00000001FF
