:100000000C9434000C9451000C9451000C944A014F
:100010000C9451000C9451000C9451000C9451001C
:100020000C9451000C9451000C9451000C9411014B
:100030000C9451000C9451000C9451000C945100FC
:100040000C9451000C9451000C9451000C945100EC
:100050000C9451000C9451000C9451000C945100DC
:100060000C9451000C94510011241FBECFEFD8E026
:10007000DEBFCDBF11E0A0E0B1E0E4E1FCE002C0F2
:1000800005900D92A831B107D9F711E0A8E1B1E0D0
:1000900001C01D92A632B107E1F70E94BC000C948A
:1000A00008060C9400008091180190911901843683
:1000B00091056CF0109219011092180180911A01AB
:1000C00090911B01019690931B0180931A018091DE
:1000D0001A0190911B01CC976CF010921B011092A9
:1000E0001A0180911C0190911D01019690931D01B0
:1000F00080931C0180911C0190911D01CC976CF0A4
:1001000010921D0110921C0180911E0190911F01FF
:10011000019690931F0180931E010895EBE6F0E095
:10012000808183608083E8E6F0E080818160808365
:10013000E1E8F0E080818860808380E29EE4909333
:10014000890080938800808182608083EFE6F0E000
:100150008081826080831092B300E0EBF0E08081C8
:1001600080688083808183608083E1EBF0E0808120
:100170008160808378940895CF93DF93CDB7DEB705
:1001800064970FB6F894DEBF0FBECDBF0E948E00FD
:10019000239A15B883E60E94FD0180E0C82E81E015
:1001A000D82E14E1EE24E394F12CEC0EFD1E809188
:1001B000B3001F928F93809119018F938091180142
:1001C0008F9380911B018F9380911A018F9380915F
:1001D0001D018F9380911C018F9380911F018F933C
:1001E00080911E018F93DF92CF921F921F93FF92F7
:1001F000EF920E94130360E070E0C7010E943B028F
:100200002FEF80E792E0215080409040E1F700C05E
:1002100000000E94F1010FB6F894DEBF0FBECDBF03
:10022000C6CF1F920F920FB60F9211242F933F93B8
:100230004F935F936F937F938F939F93AF93BF93EE
:10024000EF93FF938091200190912101019789F014
:100250008091220190912301019759F0809118011A
:1002600090911901019690931901809318010E94B1
:100270005300FF91EF91BF91AF919F918F917F912B
:100280006F915F914F913F912F910F900FBE0F9003
:100290001F9018951F920F920FB60F9211242F9353
:1002A0003F934F938F939F9343B140FD12C081E0E2
:1002B00090E02091200130912101232B11F080E06A
:1002C00090E09093210180932001109223011092DD
:1002D000220141FD30C080912001909121018130A7
:1002E000910521F52091220130912301232BF1F476
:1002F000109219011092180110921B0110921A010C
:1003000010921D0110921C0110921F0110921E01EB
:10031000909323018093220109C01092B3000BC077
:100320008091B3008F5F8093B30005C08091B300CC
:100330008A3FB0F3F2CF9F918F914F913F912F91D0
:100340000F900FBE0F901F901895209124013091AF
:1003500025012130310521F495B1982B95B90895E7
:1003600098B1982B98B908952091240130912501D6
:1003700080952130310521F495B1982395B90895E0
:1003800098B1982398B9089588E00E94A50184E067
:1003900090E00197F1F788E00E94B40188EC90E0CA
:1003A0000197F1F70895CF93C82F80E20E94B4011E
:1003B000CBB9CF910C94C401CF93C82F80E20E9497
:1003C000B40180E10E94B4018C2F807F8BB90E9420
:1003D000C40120E1C29FC00111248BB9CF910C94BC
:1003E000C4011BB80E94C40180E18BB90E94C40102
:1003F00080E99AE10197F1F7089590EF9AB9823672
:1004000049F481E090E0909325018093240188E3F2
:1004100084B906C0109225011092240188E387B99F
:100420002FE782E392E0215080409040E1F700C046
:10043000000080E30E94D30180E190E40197F1F78E
:1004400080E30E94D30180E991E00197F1F780E316
:100450000E94D30180E20E94D30182E00E94DC016D
:1004600088E20E94DC018CE00E94DC010E94F10124
:1004700086E00C94DC018F929F92AF92BF92CF9254
:10048000DF92EF92FF920F931F93CF93DF937C0144
:100490004B016A01FC0120E030E0CFEF1FEF45C0C7
:1004A0008114910449F4C114D10409F447C041E016
:1004B000C416D10409F441C02F30310519F480323B
:1004C00091F53CC02F31310519F4803261F538C007
:1004D0002031310599F4803231F181E088169104A0
:1004E00011F580E190E0D701A80FB91F4C9140327F
:1004F00011F4182F18C00197B0F715C0203231053C
:1005000091F4803281F081E0C816D10461F480E278
:1005100090E0D701A80FB91F4C91403211F4C82FB9
:1005200002C00197B0F72F5F3F4F8191882349F0B8
:100530002436310509F0B4CF04C0C0E210E101C097
:10054000C0E2D0E088ECA82EB12C58C08A3049F423
:1005500080EC0E94DC01C5010197F1F7DF5F1FEF1E
:1005600030C0D11731F0812F90E0809628173907DD
:10057000D9F480EC0E94DC01C5010197F1F781E01C
:100580008816910409F41CC091E0C916D104C9F47D
:1005900081149104B1F42D2F30E0812F90E08096EA
:1005A0002817390771F40CC0DC130BC080E80E94D7
:1005B000DC01C5010197F1F721E0C216D10409F46D
:1005C000DF5FF701ED0FF11D008180E20E94A501C0
:1005D00080E10E94B401802F807F8BB90E94C4010A
:1005E00040E1049FC00111248BB90E94C40180E244
:1005F0000E94B401C5010197F1F7DF5F2D2F30E0B4
:10060000F701E20FF31F80818111A0CFDF91CF911D
:100610001F910F91FF90EF90DF90CF90BF90AF9020
:100620009F908F900895EF92FF92CF93DF93CDB775
:10063000DEB72E970FB6F894DEBF0FBECDBFED88A4
:10064000FE888F89988D26E02C83FA82E98297FFB5
:1006500002C080E090E801979E838D83CE014B9687
:10066000AC01698D7A8DCE0101960E9450034D81B7
:100670005E8157FD0AC02F813885421753070CF45D
:100680009A01F701E20FF31F10822E960FB6F8942D
:10069000DEBF0FBECDBFDF91CF91FF90EF900895E9
:1006A000ACE0B0E0E6E5F3E00C94D1056C015B0151
:1006B0007A01FC0117821682838181FFC1C1662401
:1006C0006394712C6C0E7D1EF6019381F50193FDF0
:1006D000859193FF81915F01882309F4ADC1853233
:1006E00039F493FD859193FF81915F01853229F45F
:1006F000B60190E00E943D05E7CF512C10E020E0CC
:100700002032A8F48B3261F028F4803251F0833229
:1007100071F40BC08D3239F0803349F4216028C068
:100720002260246025C0286023C0206121C027FDED
:1007300027C0382F30533A3078F426FF06C0FAE04D
:100740005F9E300D1124532E13C04AE0149F300DCC
:100750001124132F20620CC08E3221F426FD6CC1AF
:10076000206406C08C3611F4206802C0883641F43B
:10077000F50193FD859193FF81915F018111C0CFB8
:10078000982F9554933018F09052933030F4F4E051
:10079000EF0EF11C4FE349830EC0833631F08337EF
:1007A00079F0833509F05DC023C0F701808189832A
:1007B00042E0E40EF11C44244394512C430115C043
:1007C000170152E0250E311CF7018080918026FF31
:1007D00003C0652D70E002C06FEF7FEFC4012C876E
:1007E0000E9432052C0171012C85022F0F7717C052
:1007F0001701F2E02F0E311CF7018080918026FF57
:1008000003C0652D70E002C06FEF7FEFC4012C873D
:100810000E9427052C012C85022F0068710103FD21
:100820001CC006C0B60180E290E00E943D05115058
:10083000812F90E048165906A8F30FC0F40107FD78
:10084000859107FF81914F01B60190E00E943D051F
:1008500011111150F1E04F1A51084114510471F770
:10086000E8C0843611F0893651F5F70127FF07C03B
:10087000608171818281938144E050E008C0608191
:100880007181882777FD8095982F42E050E0E40E33
:10089000F51E3FE6432E422297FF09C090958095B2
:1008A000709561957F4F8F4F9F4F50E8452A2AE002
:1008B00030E0A3010E947305882E861840C0022FE5
:1008C000853721F40F7E2AE030E01FC0097F8F3684
:1008D000A1F020F4883509F0AFC00BC0803721F0BB
:1008E000883709F0A9C001C0006104FF09C0046095
:1008F00007C024FF08C0066006C028E030E005C03D
:1009000020E130E002C020E132E0F70107FF07C03C
:10091000608171818281938144E050E006C06081F2
:10092000718180E090E042E050E0E40EF51EA3010A
:100930000E947305882E86188FE7482E402246FEB7
:100940000BC0042D0E7F851450F444FE0AC042FCF7
:1009500008C0042D0E7E05C0982C042D03C0982CD1
:1009600001C0952C04FF0DC0FE01E80DF11D808132
:10097000803311F4097E09C002FF06C0939493945A
:1009800004C0802F867809F0939403FD12C000FF05
:100990000DC0582C911650F4510E5918912E06C0C6
:1009A000B60180E290E00E943D0593949116C0F359
:1009B00004C0911610F4191901C010E004FF10C012
:1009C000B60180E390E00E943D0502FF1EC001FFDA
:1009D00003C088E590E002C088E790E0B6010CC053
:1009E000802F867891F001FD02C080E201C08BE289
:1009F00007FD8DE2B60190E00E943D0506C0B601FC
:100A000080E390E00E943D055A948514C0F38A94D7
:100A1000F301E80DF11DB601808190E00E943D05D3
:100A20008110F5CF06C0B60180E290E00E943D053E
:100A300011501111F8CF48CEF6012681378102C03E
:100A40002FEF3FEFC9012C96E2E10C94ED05FC017C
:100A50000590615070400110D8F7809590958E0FE9
:100A60009F1F0895FC016150704001900110D8F75C
:100A7000809590958E0F9F1F0895CF92DF92EF92F1
:100A8000FF926C017B01DB0113968C9181FD04C008
:100A9000CC24CA94DC2C21C082FF10C0FB0126812B
:100AA000378184819581281739078CF40190F08172
:100AB000E02DC192DB01ED93FC9309C0DB01189698
:100AC000ED91FC9119978C2D0995892B09F7F70168
:100AD00086819781019697838683C601FF90EF9068
:100AE000DF90CF900895FA01AA27283051F12031E4
:100AF00081F1E8946F936E7F6E5F7F4F8F4F9F4FB2
:100B0000AF4FB1E03ED0B4E03CD0670F781F891FF3
:100B10009A1FA11D680F791F8A1F911DA11D6A0FC1
:100B2000711D811D911DA11D20D009F468943F9174
:100B30002AE0269F11243019305D3193DEF6CF0173
:100B40000895462F4770405D4193B3E00FD0C9F739
:100B5000F6CF462F4F70405D4A3318F0495D31FDA6
:100B60004052419302D0A9F7EACFB4E0A6959795F9
:100B7000879577956795BA95C9F7009761057105CF
:100B800008959B01AC010A2E069457954795379519
:100B90002795BA95C9F7620F731F841F951FA01D73
:100BA00008952F923F924F925F926F927F928F9211
:100BB0009F92AF92BF92CF92DF92EF92FF920F93EC
:100BC0001F93CF93DF93CDB7DEB7CA1BDB0B0FB6F6
:100BD000F894DEBF0FBECDBF09942A8839884888B3
:100BE0005F846E847D848C849B84AA84B984C88449
:100BF000DF80EE80FD800C811B81AA81B981CE0F40
:100C0000D11D0FB6F894DEBF0FBECDBFED01089524
:040C1000F894FFCF86
:100C1400253032693A253032693A253032692E2539
:080C24003032690A2569000065
:00000001FF
