:100000000C9434000C9446000C9446000C9446006A
:100010000C9446000C9446000C9446000C94460048
:100020000C9446000C9446000C9446000C94460038
:100030000C9446000C9446000C9446000C94460028
:100040000C9446000C9446000C9446000C94460018
:100050000C9446000C9446000C9446000C94460008
:100060000C9446000C94460011241FBECFEFD8E03C
:10007000DEBFCDBF11E0A0E0B1E001C01D92A23013
:10008000B107E1F70E945A000C94D4010C940000CF
:1000900080E88093B300E0EBF0E0808180688083AB
:1000A000808183608083E1EBF0E0808181608083E8
:1000B000789408950E944800239A529815B885B103
:1000C0008B6F85B983E60E94BE00FFCF20910001AF
:1000D000309101012130310521F495B1982B95B96A
:1000E000089598B1982B98B9089520910001309106
:1000F000010180952130310521F495B1982395B9FE
:10010000089598B1982398B9089588E00E946600F0
:1001100084E090E00197F1F788E00E94750088EC98
:1001200090E00197F1F70895CF93C82F80E20E94E5
:100130007500CBB9CF910C948500CF93C82F80E286
:100140000E94750080E10E9475008C2F807F8BB922
:100150000E94850020E1C29FC00111248BB9CF917C
:100160000C9485001BB80E94850080E18BB90E9429
:10017000850080E99AE10197F1F7089590EF9AB927
:10018000823649F481E090E0909301018093000170
:1001900088E384B906C0109201011092000188E33F
:1001A00087B92FE782E392E0215080409040E1F749
:1001B00000C0000080E30E94940080E190E4019779
:1001C000F1F780E30E94940080E991E00197F1F754
:1001D00080E30E94940080E20E94940082E00E94EA
:1001E0009D0088E20E949D008CE00E949D000E947C
:1001F000B20086E00C949D008F929F92AF92BF92C6
:10020000CF92DF92EF92FF920F931F93CF93DF93E2
:100210007C014B016A01FC0120E030E0CFEF1FEFD1
:1002200045C08114910449F4C114D10409F447C0B4
:1002300041E0C416D10409F441C02F30310519F44E
:10024000803291F53CC02F31310519F4803261F5CF
:1002500038C02031310599F4803231F181E08816BF
:10026000910411F580E190E0D701A80FB91F4C91DE
:10027000403211F4182F18C00197B0F715C0203282
:10028000310591F4803281F081E0C816D10461F427
:1002900080E290E0D701A80FB91F4C91403211F4D1
:1002A000C82F02C00197B0F72F5F3F4F819188237D
:1002B00049F02436310509F0B4CF04C0C0E210E1A2
:1002C00001C0C0E2D0E088ECA82EB12C58C08A3022
:1002D00049F480EC0E949D00C5010197F1F7DF5FB2
:1002E0001FEF30C0D11731F0812F90E08096281792
:1002F0003907D9F480EC0E949D00C5010197F1F700
:1003000081E08816910409F41CC091E0C916D1045B
:10031000C9F481149104B1F42D2F30E0812F90E0C5
:1003200080962817390771F40CC0DC130BC080E8E5
:100330000E949D00C5010197F1F721E0C216D1048A
:1003400009F4DF5FF701ED0FF11D008180E20E94EB
:10035000660080E10E947500802F807F8BB90E942B
:10036000850040E1049FC00111248BB90E948500E3
:1003700080E20E947500C5010197F1F7DF5F2D2F24
:1003800030E0F701E20FF31F80818111A0CFDF91F0
:10039000CF911F910F91FF90EF90DF90CF90BF9082
:0C03A000AF909F908F900895F894FFCFCD
:00000001FF
