:100000000C94B1000C94CE000C94CE000C94CE0055
:100010000C94CE000C94CE000C94CE000C94CE0028
:100020000C94CE000C94CE000C94CE000C94CE0018
:100030000C94CE000C94CE000C94CE000C94CE0008
:100040000C94CE000C94CE000C94CE000C94CE00F8
:100050000C94CE000C94CE000C94CE000C94CE00E8
:100060000C94CE000C94CE0000407A10F35A00A0FD
:10007000724E18090010A5D4E80000E87648170071
:1000800000E40B54020000CA9A3B000000E1F505B1
:10009000000080969800000040420F000000A086FB
:1000A00001000000102700000000E803000000002D
:1000B0006400000000000A000000000001000000D1
:1000C00000002C76D888DC674F0823DFC1DFAE59EB
:1000D000E1B1B796E5E3E453C63AE651997696E87E
:1000E000E6C28426EB898C9B62ED407C6FFCEFBC02
:1000F0009C9F40F2BAA56FA5F490055A2AF75C932D
:100100006B6CF9676DC11BFCE0E40D47FEF520E662
:10011000B500D0ED902E0300943577050080841E45
:10012000080000204E0A000000C80C333333330FA0
:10013000986E12831141EF8D2114893BE65516CF3D
:10014000FEE6DB18D1844B381BF77C1D901DA4BB49
:10015000E424203284725E228100C9F124ECA1E5FE
:100160003D2711241FBECFEFD8E0DEBFCDBF11E089
:10017000A0E0B1E0E8E4F8E102C005900D92A03102
:10018000B107D9F711E0A0E1B1E001C01D92A231A1
:10019000B107E1F70E942C020C94220C0C94000091
:1001A00080E88093B300E0EBF0E08081806880839A
:1001B000808183608083E1EBF0E0808181608083D7
:1001C000789408958F709927209164002E7F209352
:1001D0006400883091054CF421E030E0082E01C025
:1001E000220F0A94EAF720937E0027E820937A00F2
:1001F00010927B008830910511F488EC01C0806476
:1002000080937C00089580917A00806480937A00C6
:1002100080917A0086FDFCCF2091780030917900A2
:10022000C901089580E88093B30087E090E041E041
:1002300050E06091B3009A01082E01C0220F0A9489
:10024000EAF7622B6093B3006FEF70E7E2E0615072
:100250007040E040E1F700C00000189906C03091FE
:10026000B300209523232093B300019710F76091EA
:10027000B30070E080E090E00E94700528E939EE5C
:1002800041EA5CE30E94FC05089580E88093B30096
:1002900087E090E041E050E06091B3009A01082EC1
:1002A00001C0220F0A94EAF7622B6093B300EFE3D8
:1002B000FFE13197F1F700C00000189906C03091B6
:1002C000B300209523232093B300019728F7609172
:1002D000B30070E080E090E00E94700528E939EEFC
:1002E00041EA5CE30E94FC050895AF92BF92CF9271
:1002F000DF92EF92FF920F931F93CF93DF935B01F7
:100300007C01C12CD12C00E010E0D0E0C0E019C08D
:10031000F701619171917F01882777FD8095982F72
:100320000E9470059B01AC01FE01602F712F8F2F81
:100330009C2F0E94A2048B01D82FC92FFFEFCF1A48
:10034000DF0ACA14DB0424F3B501882777FD809502
:10035000982F0E9470059B01AC01FE01602F712F48
:100360008F2F9C2F0E940605DF91CF911F910F9137
:10037000FF90EF90DF90CF90BF90AF9008952F92B5
:100380003F924F925F926F927F928F929F92AF9225
:10039000BF92EF92FF920F931F93CF93DF93D82FCB
:1003A000C92F2B010E9475014B015C016D2E7C2E23
:1003B000212C312C00E010E0D0E0C0E028C0F30197
:1003C000619171913F01882777FD8095982F0E9458
:1003D0007005A50194010E94A104FB012E2F3F2F5F
:1003E000482F592F7C016E2F7F2FC7010E94FC05DB
:1003F0009B01AC01DE01602F712F8B2F9C2F0E947F
:10040000A2048B01D82FC92FFFEF2F1A3F0A241403
:100410003504ACF2B201882777FD8095982F0E94B1
:1004200070059B01AC01FE01602F712F8F2F9C2F57
:100430000E940605DF91CF911F910F91FF90EF90E1
:10044000BF90AF909F908F907F906F905F904F90F4
:100450003F902F900C946306CF93DF93CDB7DEB718
:10046000CE59D1090FB6F894DEBF0FBECDBF0E94A2
:10047000D000239A15B880E090E00E94E20083E665
:100480000E948B038DB79EB7885E93400FB6F89499
:100490009EBF0FBE8DBFADB6BEB6EFEFAE1ABE0AA1
:1004A000C12CD12C75011E01FBE42F0E311C3E0125
:1004B00023E7620E711C2E0183E2480E511C4E018F
:1004C00097E3890E911CFE013196C556DF4FF983E3
:1004D000E883CB59D04014C00E9445018091B300FD
:1004E000F601EE0FFF1FEA0DFB1D808311828FE3E3
:1004F0009FE10197F1F700C000009FEFC91AD90AE8
:10050000E4EFCE16E1E0DE063CF364EF71E0C701F4
:100510000E94BF0128E939EE41EA5CE30E94FC0534
:100520008E0109571F4F24E045E00E94B60664EF94
:1005300071E0C7010E947501810123E045E00E943E
:10054000B60664EF71E0C7010E94750128E939EE33
:1005500041EA5CE30E94FC05830124E045E00E943F
:10056000B60664EF71E0C7010E94BF018E01015A17
:100570001F4F24E045E00E94B606A50184EFC82E77
:10058000DD24D394C356DF4F4883CD59D040C256A3
:10059000DF4F5883CE59D0400E940301C356DF4F2E
:1005A0004881CD59D040C256DF4F5881CE59D040F6
:1005B000FA0181939193AF01F1E0CF1AD10811F7BD
:1005C00064EF71E0C7010E9475012AE030E741EA5B
:1005D0005BE30E94FC05820124E045E00E94B60630
:1005E00064EF71E0C7010E947501840124E045E0D9
:1005F0000E94B6069F928F923F922F925F924F92E7
:100600007F926F9280E091E09F938F931F92F2E22E
:10061000FF93C456DF4F2881CC59D0402F93C55645
:10062000DF4F8881CB59D0408F930E94D7069FEF30
:10063000E3ECF9E09150E040F040E1F700C0000049
:100640000E947F0360E070E0CE0101960E94C90322
:100650008DB79EB70E960FB6F8949EBF0FBE8DBF96
:10066000C12CD12C4DCF209110013091110121309E
:10067000310521F495B1982B95B9089598B1982B2F
:1006800098B9089520911001309111018095213081
:10069000310521F495B1982395B9089598B198231F
:1006A00098B9089588E00E94330384E090E00197B0
:1006B000F1F788E00E94420388EC90E00197F1F79F
:1006C0000895CF93C82F80E20E944203CBB9CF9107
:1006D0000C945203CF93C82F80E20E94420380E122
:1006E0000E9442038C2F807F8BB90E94520320E12D
:1006F000C29FC00111248BB9CF910C9452031BB837
:100700000E94520380E18BB90E94520380E99AE172
:100710000197F1F7089590EF9AB9823649F481E094
:1007200090E0909311018093100188E384B906C092
:10073000109211011092100188E387B92FE782E32C
:1007400092E0215080409040E1F700C0000080E33B
:100750000E94610380E190E40197F1F780E30E9439
:10076000610380E991E00197F1F780E30E94610362
:1007700080E20E94610382E00E946A0388E20E9494
:100780006A038CE00E946A030E947F0386E00C9457
:100790006A038F929F92AF92BF92CF92DF92EF92B5
:1007A000FF920F931F93CF93DF937C014B016A015C
:1007B000FC0120E030E0CFEF1FEF45C08114910431
:1007C00049F4C114D10409F447C041E0C416D1046E
:1007D00009F441C02F30310519F4803291F53CC045
:1007E0002F31310519F4803261F538C020313105DF
:1007F00099F4803231F181E08816910411F580E19D
:1008000090E0D701A80FB91F4C91403211F4182F76
:1008100018C00197B0F715C02032310591F480322D
:1008200081F081E0C816D10461F480E290E0D70144
:10083000A80FB91F4C91403211F4C82F02C0019784
:10084000B0F72F5F3F4F8191882349F0243631055F
:1008500009F0B4CF04C0C0E210E101C0C0E2D0E0B2
:1008600088ECA82EB12C58C08A3049F480EC0E9444
:100870006A03C5010197F1F7DF5F1FEF30C0D117A1
:1008800031F0812F90E0809628173907D9F480EC59
:100890000E946A03C5010197F1F781E0881691046F
:1008A00009F41CC091E0C916D104C9F48114910463
:1008B000B1F42D2F30E0812F90E080962817390772
:1008C00071F40CC0DC130BC080E80E946A03C50100
:1008D0000197F1F721E0C216D10409F4DF5FF701B7
:1008E000ED0FF11D008180E20E94330380E10E9440
:1008F0004203802F807F8BB90E94520340E1049F06
:10090000C00111248BB90E94520380E20E9442036D
:10091000C5010197F1F7DF5F2D2F30E0F701E20FFE
:10092000F31F80818111A0CFDF91CF911F910F9193
:10093000FF90EF90DF90CF90BF90AF909F908F90FF
:1009400008955058BB27AA270ED01CC10DD130F0F6
:1009500012D120F031F49F3F11F41EF402C10EF4C5
:10096000E095E7FBF8C0E92F1ED180F3BA176207C4
:1009700073078407950718F071F49EF536C10EF4DD
:10098000E0950B2EBA2FA02D0B01B90190010C019F
:10099000CA01A0011124FF27591B99F0593F50F4B7
:1009A000503E68F11A16F040A22F232F342F44270F
:1009B000585FF3CF469537952795A795F040539507
:1009C000C9F77EF41F16BA0B620B730B840BBAF0D7
:1009D0009150A1F0FF0FBB1F661F771F881FC2F742
:1009E0000EC0BA0F621F731F841F48F48795779556
:1009F0006795B795F7959E3F08F0B3CF9395880F0D
:100A000008F09927EE0F9795879508950CD0BAC0F6
:100A1000B2D040F0A9D030F021F45F3F19F09BC074
:100A20005111E4C09EC0BFD098F39923C9F3552358
:100A3000B1F3951B550BBB27AA27621773078407D1
:100A400038F09F5F5F4F220F331F441FAA1FA9F387
:100A500033D00E2E3AF0E0E830D091505040E69579
:100A6000001CCAF729D0FE2F27D0660F771F881FDA
:100A7000BB1F261737074807AB07B0E809F0BB0BC9
:100A8000802DBF01FF2793585F4F2AF09E3F5105ED
:100A900068F061C0ABC05F3FECF3983EDCF3869535
:100AA00077956795B795F7959F5FC9F7880F911D63
:100AB0009695879597F90895E1E0660F771F881F4F
:100AC000BB1F621773078407BA0720F0621B730B02
:100AD000840BBA0BEE1F88F7E0950895E89409C0DF
:100AE00097FB3EF490958095709561957F4F8F4F61
:100AF0009F4F9923A9F0F92F96E9BB279395F69577
:100B0000879577956795B795F111F8CFFAF4BB0FF4
:100B100011F460FF1BC06F5F7F4F8F4F9F4F16C058
:100B2000882311F096E911C0772321F09EE8872FE2
:100B3000762F05C0662371F096E8862F70E060E09E
:100B40002AF09A95660F771F881FDAF7880F969517
:100B5000879597F9089597F99F6780E870E060E0BE
:100B600008959FEF80EC089500240A941616170646
:100B700018060906089500240A941216130614068E
:100B800005060895092E0394000C11F4882352F0F1
:100B9000BB0F40F4BF2B11F460FF04C06F5F7F4FA9
:100BA0008F4F9F4F089557FD9058440F551F59F090
:100BB0005F3F71F04795880F97FB991F61F09F3F4A
:100BC00079F087950895121613061406551FF2CF73
:100BD0004695F1DF08C0161617061806991FF1CFC3
:100BE00086957105610508940895E894BB276627EA
:100BF0007727CB0197F908950BD0C4CFB5DF28F044
:100C0000BADF18F0952309F0A6CFABCF1124EECFB1
:100C1000CADFA0F3959FD1F3950F50E0551F629F57
:100C2000F001729FBB27F00DB11D639FAA27F00D45
:100C3000B11DAA1F649F6627B00DA11D661F829F6C
:100C40002227B00DA11D621F739FB00DA11D621F51
:100C5000839FA00D611D221F749F3327A00D611D6E
:100C6000231F849F600D211D822F762F6A2F112450
:100C70009F5750408AF0E1F088234AF0EE0FFF1FA3
:100C8000BB1F661F771F881F91505040A9F79E3FDA
:100C9000510570F060CFAACF5F3FECF3983EDCF3D4
:100CA000869577956795B795F795E7959F5FC1F717
:100CB000FE2B880F911D9695879597F9089511F44D
:100CC0000EF44FCF3EC077DFD0F39923D9F3CEF3A4
:100CD0009F57550B87FF43D00024A0E640EA9001C0
:100CE00080585695979528F4805C660F771F881F6B
:100CF00020F026173707480730F4621B730B840B6C
:100D0000202931294A2BA6951794079420253125AF
:100D10004A2758F7660F771F881F20F026173707D6
:100D2000480730F4620B730B840B200D311D411DFD
:100D3000A09581F7B901842F9158880F96958795D2
:100D400008959F3F31F0915020F4879577956795EE
:100D5000B795880F911D9695879597F908959150AD
:100D60005040660F771F881FD2F70895EF920F93B8
:100D70001F93CF93C02F47FF02C034E101C034E07E
:100D8000E42FFF27E7FDF095F7FF03C0F195E1950C
:100D9000F109E32E022F2E2F4C2F512F0E94EB082A
:100DA0008C2F912FCF911F910F91EF900895EF927B
:100DB000FF92CF93DF93CDB7DEB72E970FB6F8949F
:100DC000DEBF0FBECDBFED88FE888F89988D26E0EF
:100DD0002C83FA82E98297FF02C080E090E80197B5
:100DE0009E838D83CE014B96AC01698D7A8DCE01A9
:100DF00001960E9414074D815E8157FD0AC02F8124
:100E00003885421753070CF49A01F701E20FF31FDC
:100E100010822E960FB6F894DEBF0FBECDBFDF91C5
:100E2000CF91FF90EF900895ACE0B0E0EAE1F7E0F9
:100E30000C94EB0B6C015B017A01FC0117821682AA
:100E4000838181FFC1C166246394712C6C0E7D1E69
:100E5000F6019381F50193FD859193FF81915F01E7
:100E6000882309F4ADC1853239F493FD859193FF50
:100E700081915F01853229F4B60190E00E94570B01
:100E8000E7CF512C10E020E02032A8F48B3261F043
:100E900028F4803251F0833271F40BC08D3239F076
:100EA000803349F4216028C02260246025C0286076
:100EB00023C0206121C027FD27C0382F30533A308E
:100EC00078F426FF06C0FAE05F9E300D1124532E01
:100ED00013C04AE0149F300D1124132F20620CC060
:100EE0008E3221F426FD6CC1206406C08C3611F4CC
:100EF000206802C0883641F4F50193FD859193FF87
:100F000081915F018111C0CF982F9554933018F0D3
:100F10009052933030F4F4E0EF0EF11C4FE349832C
:100F20000EC0833631F0833779F0833509F05DC028
:100F300023C0F7018081898342E0E40EF11C442440
:100F40004394512C430115C0170152E0250E311C6A
:100F5000F7018080918026FF03C0652D70E002C0FC
:100F60006FEF7FEFC4012C870E944C0B2C017101A5
:100F70002C85022F0F7717C01701F2E02F0E311CBE
:100F8000F7018080918026FF03C0652D70E002C0CC
:100F90006FEF7FEFC4012C870E94410B2C012C8541
:100FA000022F0068710103FD1CC006C0B60180E27B
:100FB00090E00E94570B1150812F90E0481659067F
:100FC000A8F30FC0F40107FD859107FF81914F0140
:100FD000B60190E00E94570B11111150F1E04F1A29
:100FE00051084114510471F7E8C0843611F0893674
:100FF00051F5F70127FF07C06081718182819381DC
:1010000044E050E008C060817181882777FD8095B9
:10101000982F42E050E0E40EF51E3FE6432E4222B8
:1010200097FF09C090958095709561957F4F8F4F80
:101030009F4F50E8452A2AE030E0A3010E948D0B23
:10104000882E861840C0022F853721F40F7E2AE0B3
:1010500030E01FC0097F8F36A1F020F4883509F0F9
:10106000AFC00BC0803721F0883709F0A9C001C09C
:10107000006104FF09C0046007C024FF08C00660C7
:1010800006C028E030E005C020E130E002C020E1E9
:1010900032E0F70107FF07C060817181828193818F
:1010A00044E050E006C06081718180E090E042E061
:1010B00050E0E40EF51EA3010E948D0B882E8618C9
:1010C0008FE7482E402246FE0BC0042D0E7F85146C
:1010D00050F444FE0AC042FC08C0042D0E7E05C038
:1010E000982C042D03C0982C01C0952C04FF0DC032
:1010F000FE01E80DF11D8081803311F4097E09C0E5
:1011000002FF06C09394939404C0802F867809F060
:10111000939403FD12C000FF0DC0582C911650F49B
:10112000510E5918912E06C0B60180E290E00E943F
:10113000570B93949116C0F304C0911610F419192B
:1011400001C010E004FF10C0B60180E390E00E94EF
:10115000570B02FF1EC001FF03C088E590E002C0EC
:1011600088E790E0B6010CC0802F867891F001FDF1
:1011700002C080E201C08BE207FD8DE2B60190E083
:101180000E94570B06C0B60180E390E00E94570B07
:101190005A948514C0F38A94F301E80DF11DB60149
:1011A000808190E00E94570B8110F5CF06C0B601F8
:1011B00080E290E00E94570B11501111F8CF48CEF9
:1011C000F6012681378102C02FEF3FEFC9012C962F
:1011D000E2E10C94070C6F927F929F92AF92BF92C4
:1011E000CF92DF92EF92FF920F931F93CF93DF93F3
:1011F000CDB7DEB729970FB6F894DEBF0FBECDBFCF
:101200006A01F22E102F0C3318F4B02EB39402C0E2
:10121000ACE3BA2E0B2D27E0AE014F5F5F4F0E946B
:10122000690AA9812A2F2970213031F0E1FC06C01A
:10123000E0FE06C020E205C02DE203C02BE201C0A3
:1012400020E0A3FF3DC0222311F084E001C083E031
:101250008F1510F4F81A01C0F12CE4FC0BC08F2D8F
:10126000F60190E202C0919381508111FCCFCF0C26
:10127000D11CF12C222319F0D6012D936D01E2FE31
:101280000AC08EE4F601808391E491838283F3E0C7
:10129000CF0ED11C0CC08EE6D6018C9391E6119630
:1012A0009C93119712968C93B3E0CB0ED11C8F2D8B
:1012B000F60190E202C0919381508111FCCF40C0B1
:1012C000A2FF45C0222311F084E001C083E08F1506
:1012D00010F4F81A01C0F12CE4FC0BC08F2DF601BC
:1012E00090E202C0919381508111FCCFCF0CD11CB0
:1012F000F12C222319F0F60121936F01E2FE0EC0BA
:1013000089E4D6018C938EE411968C93119786E430
:1013100012968C93B3E0CB0ED11C0AC089E6F6017D
:1013200080838EE6818386E68283F3E0CF0ED11C34
:101330008F2DF60190E202C0919381508111FCCF74
:10134000F601EF0DF11D10822EEF3FEFADC0B1E0C1
:10135000211101C0B0E06B2F70E01816190624F4BB
:10136000AC014F5F5F4F02C041E050E0640F751F5A
:10137000112329F0412F50E04F5F5F4F02C040E042
:1013800050E0460F571F6F2D70E0461757071CF4AB
:101390003F2D341B01C030E05E2D5071E4FC0DC0C8
:1013A000E3FC0BC0432FF60160E202C061934150A1
:1013B0004111FCCFC30ED11C30E0BB2319F0F60164
:1013C00021936F0151110BC0232FF60140E302C09E
:1013D000419321502111FCCFC30ED11C30E0B80E37
:1013E000AA80F0E19F2E9A22A4FF04C0F1E3AF127D
:1013F00001C0BA941B142CF42B2D293018F028E0CE
:1014000001C021E0AC0197FF02C040E050E060E085
:1014100070E0EEE2BE2E3C01621A71087C01E41A13
:10142000F50AFE013196EE0DFF1D012F10E011951A
:10143000019511094F3F2FEF520719F4D601BD92C4
:101440006D018417950754F0641675063CF47F010E
:10145000E60EF71ED70111962C9101C020E34150F2
:1014600051096F5F7F4F4017510724F0D6012D932C
:101470006D01E0CF4817590741F4B5E3BA1520F0E4
:10148000AB1203C0911001C021E3F6012193832F19
:10149000DF0190E202C09D9381508111FCCFE30FE8
:1014A000F11D108220E030E0C90129960FB6F894B2
:1014B000DEBF0FBECDBFDF91CF911F910F91FF9087
:1014C000EF90DF90CF90BF90AF909F907F906F9004
:1014D0000895283008F027E03327DA01990F311DED
:1014E00087FD916000966105710539F432602E5FC9
:1014F0003D9330E32A95E1F708959F3F30F080381F
:101500007105610509F03C5F3C5F3D93913008F047
:101510008068911DDF93CF931F930F93FF92EF92FB
:10152000192F987F9695E92F96959695E90FFF27A5
:10153000EE53FF4F99273327EE24FF24A701E7013D
:1015400005900894079428F4360FE71EF81E491FEB
:10155000511D660F771F881F991F0694A1F70590EC
:10156000079428F4E70EF81E491F561FC11D770F78
:10157000881F991F661F0694A1F70590079428F409
:10158000F80E491F561FC71FD11D880F991F661FD0
:10159000771F0694A1F70590079420F4490F561F72
:1015A000C71FD81F990F661F771F881F0694A9F7BA
:1015B00084911095177041F0D695C795579547952A
:1015C000F794E7941A95C1F7E8E6F0E0689415906F
:1015D000159135916591959105907FE27395E1188C
:1015E000F10A430B560BC90BD009C0F7E10CF11EF1
:1015F000431F561FC91FD01D7EF4703311F48A9506
:10160000E6CFE894015030F0080F0AF400270217E3
:1016100008F4202F2395022F7A3328F079E37D9365
:101620002A95E9F710C07D932A9589F60694979537
:101630006795379517951794E118F10A430B560BE8
:10164000C90BD00998F023957E9173957A3308F0F1
:1016500070E37C932013B8F77E9170617D9330F036
:10166000839571E37D9370E32A95E1F71124EF9060
:10167000FF900F911F91CF91DF91992787FD909552
:101680000895FC010590615070400110D8F78095D5
:1016900090958E0F9F1F0895FC016150704001903E
:1016A0000110D8F7809590958E0F9F1F0895CF92C7
:1016B000DF92EF92FF926C017B01DB0113968C911C
:1016C00081FD04C0CC24CA94DC2C21C082FF10C050
:1016D000FB012681378184819581281739078CF495
:1016E0000190F081E02DC192DB01ED93FC9309C0E4
:1016F000DB011896ED91FC9119978C2D0995892B9A
:1017000009F7F70186819781019697838683C60141
:10171000FF90EF90DF90CF900895FA01AA2728302C
:1017200051F1203181F1E8946F936E7F6E5F7F4FAE
:101730008F4F9F4FAF4FB1E03ED0B4E03CD0670F2A
:10174000781F891F9A1FA11D680F791F8A1F911D7D
:10175000A11D6A0F711D811D911DA11D20D009F4CD
:1017600068943F912AE0269F11243019305D31930F
:10177000DEF6CF010895462F4770405D4193B3E0F8
:101780000FD0C9F7F6CF462F4F70405D4A3318F09F
:10179000495D31FD4052419302D0A9F7EACFB4E050
:1017A000A6959795879577956795BA95C9F7009708
:1017B0006105710508959B01AC010A2E06945795A9
:1017C000479537952795BA95C9F7620F731F841F00
:1017D000951FA01D08952F923F924F925F926F9296
:1017E0007F928F929F92AF92BF92CF92DF92EF92B1
:1017F000FF920F931F93CF93DF93CDB7DEB7CA1B32
:10180000DB0B0FB6F894DEBF0FBECDBF09942A885C
:10181000398848885F846E847D848C849B84AA8404
:10182000B984C884DF80EE80FD800C811B81AA8191
:10183000B981CE0FD11D0FB6F894DEBF0FBECDBF5C
:08184000ED010895F894FFCFBB
:101848004D3A25735625730A5325732025730000D6
:00000001FF
